{
  "_format": "hh-sol-artifact-1",
  "contractName": "StockTokenization",
  "sourceName": "contracts/Stock.sol",
  "abi": [
    {
      "inputs": [],
      "stateMutability": "nonpayable",
      "type": "constructor"
    },
    {
      "inputs": [
        {
          "internalType": "address",
          "name": "spender",
          "type": "address"
        },
        {
          "internalType": "uint256",
          "name": "allowance",
          "type": "uint256"
        },
        {
          "internalType": "uint256",
          "name": "needed",
          "type": "uint256"
        }
      ],
      "name": "ERC20InsufficientAllowance",
      "type": "error"
    },
    {
      "inputs": [
        {
          "internalType": "address",
          "name": "sender",
          "type": "address"
        },
        {
          "internalType": "uint256",
          "name": "balance",
          "type": "uint256"
        },
        {
          "internalType": "uint256",
          "name": "needed",
          "type": "uint256"
        }
      ],
      "name": "ERC20InsufficientBalance",
      "type": "error"
    },
    {
      "inputs": [
        {
          "internalType": "address",
          "name": "approver",
          "type": "address"
        }
      ],
      "name": "ERC20InvalidApprover",
      "type": "error"
    },
    {
      "inputs": [
        {
          "internalType": "address",
          "name": "receiver",
          "type": "address"
        }
      ],
      "name": "ERC20InvalidReceiver",
      "type": "error"
    },
    {
      "inputs": [
        {
          "internalType": "address",
          "name": "sender",
          "type": "address"
        }
      ],
      "name": "ERC20InvalidSender",
      "type": "error"
    },
    {
      "inputs": [
        {
          "internalType": "address",
          "name": "spender",
          "type": "address"
        }
      ],
      "name": "ERC20InvalidSpender",
      "type": "error"
    },
    {
      "inputs": [
        {
          "internalType": "address",
          "name": "owner",
          "type": "address"
        }
      ],
      "name": "OwnableInvalidOwner",
      "type": "error"
    },
    {
      "inputs": [
        {
          "internalType": "address",
          "name": "account",
          "type": "address"
        }
      ],
      "name": "OwnableUnauthorizedAccount",
      "type": "error"
    },
    {
      "anonymous": false,
      "inputs": [
        {
          "indexed": true,
          "internalType": "address",
          "name": "owner",
          "type": "address"
        },
        {
          "indexed": true,
          "internalType": "address",
          "name": "spender",
          "type": "address"
        },
        {
          "indexed": false,
          "internalType": "uint256",
          "name": "value",
          "type": "uint256"
        }
      ],
      "name": "Approval",
      "type": "event"
    },
    {
      "anonymous": false,
      "inputs": [
        {
          "indexed": true,
          "internalType": "address",
          "name": "previousOwner",
          "type": "address"
        },
        {
          "indexed": true,
          "internalType": "address",
          "name": "newOwner",
          "type": "address"
        }
      ],
      "name": "OwnershipTransferred",
      "type": "event"
    },
    {
      "anonymous": false,
      "inputs": [
        {
          "indexed": false,
          "internalType": "uint256",
          "name": "stockId",
          "type": "uint256"
        },
        {
          "indexed": false,
          "internalType": "uint256",
          "name": "newPrice",
          "type": "uint256"
        }
      ],
      "name": "PriceUpdated",
      "type": "event"
    },
    {
      "anonymous": false,
      "inputs": [
        {
          "indexed": false,
          "internalType": "uint256",
          "name": "stockId",
          "type": "uint256"
        },
        {
          "indexed": false,
          "internalType": "string",
          "name": "name",
          "type": "string"
        },
        {
          "indexed": false,
          "internalType": "string",
          "name": "symbol",
          "type": "string"
        },
        {
          "indexed": false,
          "internalType": "string",
          "name": "identifier",
          "type": "string"
        },
        {
          "indexed": false,
          "internalType": "uint256",
          "name": "totalShares",
          "type": "uint256"
        },
        {
          "indexed": false,
          "internalType": "uint256",
          "name": "sharePrice",
          "type": "uint256"
        },
        {
          "indexed": false,
          "internalType": "address",
          "name": "issuer",
          "type": "address"
        }
      ],
      "name": "StockTokenized",
      "type": "event"
    },
    {
      "anonymous": false,
      "inputs": [
        {
          "indexed": true,
          "internalType": "address",
          "name": "from",
          "type": "address"
        },
        {
          "indexed": true,
          "internalType": "address",
          "name": "to",
          "type": "address"
        },
        {
          "indexed": false,
          "internalType": "uint256",
          "name": "value",
          "type": "uint256"
        }
      ],
      "name": "Transfer",
      "type": "event"
    },
    {
      "inputs": [
        {
          "internalType": "address",
          "name": "owner",
          "type": "address"
        },
        {
          "internalType": "address",
          "name": "spender",
          "type": "address"
        }
      ],
      "name": "allowance",
      "outputs": [
        {
          "internalType": "uint256",
          "name": "",
          "type": "uint256"
        }
      ],
      "stateMutability": "view",
      "type": "function"
    },
    {
      "inputs": [
        {
          "internalType": "address",
          "name": "spender",
          "type": "address"
        },
        {
          "internalType": "uint256",
          "name": "value",
          "type": "uint256"
        }
      ],
      "name": "approve",
      "outputs": [
        {
          "internalType": "bool",
          "name": "",
          "type": "bool"
        }
      ],
      "stateMutability": "nonpayable",
      "type": "function"
    },
    {
      "inputs": [
        {
          "internalType": "address",
          "name": "account",
          "type": "address"
        }
      ],
      "name": "balanceOf",
      "outputs": [
        {
          "internalType": "uint256",
          "name": "",
          "type": "uint256"
        }
      ],
      "stateMutability": "view",
      "type": "function"
    },
    {
      "inputs": [],
      "name": "decimals",
      "outputs": [
        {
          "internalType": "uint8",
          "name": "",
          "type": "uint8"
        }
      ],
      "stateMutability": "view",
      "type": "function"
    },
    {
      "inputs": [],
      "name": "name",
      "outputs": [
        {
          "internalType": "string",
          "name": "",
          "type": "string"
        }
      ],
      "stateMutability": "view",
      "type": "function"
    },
    {
      "inputs": [],
      "name": "nextStockId",
      "outputs": [
        {
          "internalType": "uint256",
          "name": "",
          "type": "uint256"
        }
      ],
      "stateMutability": "view",
      "type": "function"
    },
    {
      "inputs": [],
      "name": "owner",
      "outputs": [
        {
          "internalType": "address",
          "name": "",
          "type": "address"
        }
      ],
      "stateMutability": "view",
      "type": "function"
    },
    {
      "inputs": [],
      "name": "renounceOwnership",
      "outputs": [],
      "stateMutability": "nonpayable",
      "type": "function"
    },
    {
      "inputs": [
        {
          "internalType": "uint256",
          "name": "",
          "type": "uint256"
        }
      ],
      "name": "stocks",
      "outputs": [
        {
          "internalType": "uint256",
          "name": "stockId",
          "type": "uint256"
        },
        {
          "internalType": "string",
          "name": "name",
          "type": "string"
        },
        {
          "internalType": "string",
          "name": "symbol",
          "type": "string"
        },
        {
          "internalType": "string",
          "name": "identifier",
          "type": "string"
        },
        {
          "internalType": "uint256",
          "name": "totalShares",
          "type": "uint256"
        },
        {
          "internalType": "uint256",
          "name": "sharesSold",
          "type": "uint256"
        },
        {
          "internalType": "uint256",
          "name": "sharePrice",
          "type": "uint256"
        },
        {
          "internalType": "address",
          "name": "issuer",
          "type": "address"
        },
        {
          "internalType": "bool",
          "name": "isActive",
          "type": "bool"
        }
      ],
      "stateMutability": "view",
      "type": "function"
    },
    {
      "inputs": [],
      "name": "symbol",
      "outputs": [
        {
          "internalType": "string",
          "name": "",
          "type": "string"
        }
      ],
      "stateMutability": "view",
      "type": "function"
    },
    {
      "inputs": [
        {
          "internalType": "string",
          "name": "_name",
          "type": "string"
        },
        {
          "internalType": "string",
          "name": "_symbol",
          "type": "string"
        },
        {
          "internalType": "string",
          "name": "_identifier",
          "type": "string"
        },
        {
          "internalType": "uint256",
          "name": "_totalShares",
          "type": "uint256"
        },
        {
          "internalType": "uint256",
          "name": "_sharePrice",
          "type": "uint256"
        }
      ],
      "name": "tokenizeStock",
      "outputs": [],
      "stateMutability": "nonpayable",
      "type": "function"
    },
    {
      "inputs": [],
      "name": "totalSupply",
      "outputs": [
        {
          "internalType": "uint256",
          "name": "",
          "type": "uint256"
        }
      ],
      "stateMutability": "view",
      "type": "function"
    },
    {
      "inputs": [
        {
          "internalType": "address",
          "name": "to",
          "type": "address"
        },
        {
          "internalType": "uint256",
          "name": "value",
          "type": "uint256"
        }
      ],
      "name": "transfer",
      "outputs": [
        {
          "internalType": "bool",
          "name": "",
          "type": "bool"
        }
      ],
      "stateMutability": "nonpayable",
      "type": "function"
    },
    {
      "inputs": [
        {
          "internalType": "address",
          "name": "from",
          "type": "address"
        },
        {
          "internalType": "address",
          "name": "to",
          "type": "address"
        },
        {
          "internalType": "uint256",
          "name": "value",
          "type": "uint256"
        }
      ],
      "name": "transferFrom",
      "outputs": [
        {
          "internalType": "bool",
          "name": "",
          "type": "bool"
        }
      ],
      "stateMutability": "nonpayable",
      "type": "function"
    },
    {
      "inputs": [
        {
          "internalType": "address",
          "name": "newOwner",
          "type": "address"
        }
      ],
      "name": "transferOwnership",
      "outputs": [],
      "stateMutability": "nonpayable",
      "type": "function"
    },
    {
      "inputs": [
        {
          "internalType": "uint256",
          "name": "_stockId",
          "type": "uint256"
        },
        {
          "internalType": "uint256",
          "name": "_newPrice",
          "type": "uint256"
        }
      ],
      "name": "updateStockPrice",
      "outputs": [],
      "stateMutability": "nonpayable",
      "type": "function"
    }
  ],
  "bytecode": "0x6080604052600160075534801561001557600080fd5b50336040518060400160405280600a81526020017f53746f636b546f6b656e000000000000000000000000000000000000000000008152506040518060400160405280600381526020017f53544b000000000000000000000000000000000000000000000000000000000081525081600390816100929190610442565b5080600490816100a29190610442565b505050600073ffffffffffffffffffffffffffffffffffffffff168173ffffffffffffffffffffffffffffffffffffffff16036101175760006040517f1e4fbdf700000000000000000000000000000000000000000000000000000000815260040161010e9190610555565b60405180910390fd5b6101268161012c60201b60201c565b50610570565b6000600560009054906101000a900473ffffffffffffffffffffffffffffffffffffffff16905081600560006101000a81548173ffffffffffffffffffffffffffffffffffffffff021916908373ffffffffffffffffffffffffffffffffffffffff1602179055508173ffffffffffffffffffffffffffffffffffffffff168173ffffffffffffffffffffffffffffffffffffffff167f8be0079c531659141344cd1fd0a4f28419497f9722a3daafe3b4186f6b6457e060405160405180910390a35050565b600081519050919050565b7f4e487b7100000000000000000000000000000000000000000000000000000000600052604160045260246000fd5b7f4e487b7100000000000000000000000000000000000000000000000000000000600052602260045260246000fd5b6000600282049050600182168061027357607f821691505b6020821081036102865761028561022c565b5b50919050565b60008190508160005260206000209050919050565b60006020601f8301049050919050565b600082821b905092915050565b6000600883026102ee7fffffffffffffffffffffffffffffffffffffffffffffffffffffffffffffffff826102b1565b6102f886836102b1565b95508019841693508086168417925050509392505050565b6000819050919050565b6000819050919050565b600061033f61033a61033584610310565b61031a565b610310565b9050919050565b6000819050919050565b61035983610324565b61036d61036582610346565b8484546102be565b825550505050565b600090565b610382610375565b61038d818484610350565b505050565b5b818110156103b1576103a660008261037a565b600181019050610393565b5050565b601f8211156103f6576103c78161028c565b6103d0846102a1565b810160208510156103df578190505b6103f36103eb856102a1565b830182610392565b50505b505050565b600082821c905092915050565b6000610419600019846008026103fb565b1980831691505092915050565b60006104328383610408565b9150826002028217905092915050565b61044b826101f2565b67ffffffffffffffff811115610464576104636101fd565b5b61046e825461025b565b6104798282856103b5565b600060209050601f8311600181146104ac576000841561049a578287015190505b6104a48582610426565b86555061050c565b601f1984166104ba8661028c565b60005b828110156104e2578489015182556001820191506020850194506020810190506104bd565b868310156104ff57848901516104fb601f891682610408565b8355505b6001600288020188555050505b505050505050565b600073ffffffffffffffffffffffffffffffffffffffff82169050919050565b600061053f82610514565b9050919050565b61054f81610534565b82525050565b600060208201905061056a6000830184610546565b92915050565b61202d8061057f6000396000f3fe608060405234801561001057600080fd5b50600436106101005760003560e01c806370a08231116100975780639cfe7646116100665780639cfe7646146102a5578063a9059cbb146102c3578063dd62ed3e146102f3578063f2fde38b1461032357610100565b806370a082311461022f578063715018a61461025f5780638da5cb5b1461026957806395d89b411461028757610100565b806323b872dd116100d357806323b872dd146101a9578063313ce567146101d95780633fd7f8b8146101f75780635388f3391461021357610100565b806306fdde0314610105578063095ea7b31461012357806318160ddd14610153578063226b876c14610171575b600080fd5b61010d61033f565b60405161011a91906113f0565b60405180910390f35b61013d600480360381019061013891906114ba565b6103d1565b60405161014a9190611515565b60405180910390f35b61015b6103f4565b604051610168919061153f565b60405180910390f35b61018b6004803603810190610186919061155a565b6103fe565b6040516101a099989796959493929190611596565b60405180910390f35b6101c360048036038101906101be9190611638565b610611565b6040516101d09190611515565b60405180910390f35b6101e1610640565b6040516101ee91906116a7565b60405180910390f35b610211600480360381019061020c91906116c2565b610649565b005b61022d60048036038101906102289190611837565b61074f565b005b61024960048036038101906102449190611906565b6109a4565b604051610256919061153f565b60405180910390f35b6102676109ec565b005b610271610a00565b60405161027e9190611933565b60405180910390f35b61028f610a2a565b60405161029c91906113f0565b60405180910390f35b6102ad610abc565b6040516102ba919061153f565b60405180910390f35b6102dd60048036038101906102d891906114ba565b610ac2565b6040516102ea9190611515565b60405180910390f35b61030d6004803603810190610308919061194e565b610ae5565b60405161031a919061153f565b60405180910390f35b61033d60048036038101906103389190611906565b610b6c565b005b60606003805461034e906119bd565b80601f016020809104026020016040519081016040528092919081815260200182805461037a906119bd565b80156103c75780601f1061039c576101008083540402835291602001916103c7565b820191906000526020600020905b8154815290600101906020018083116103aa57829003601f168201915b5050505050905090565b6000806103dc610bf2565b90506103e9818585610bfa565b600191505092915050565b6000600254905090565b6006602052806000526040600020600091509050806000015490806001018054610427906119bd565b80601f0160208091040260200160405190810160405280929190818152602001828054610453906119bd565b80156104a05780601f10610475576101008083540402835291602001916104a0565b820191906000526020600020905b81548152906001019060200180831161048357829003601f168201915b5050505050908060020180546104b5906119bd565b80601f01602080910402602001604051908101604052809291908181526020018280546104e1906119bd565b801561052e5780601f106105035761010080835404028352916020019161052e565b820191906000526020600020905b81548152906001019060200180831161051157829003601f168201915b505050505090806003018054610543906119bd565b80601f016020809104026020016040519081016040528092919081815260200182805461056f906119bd565b80156105bc5780601f10610591576101008083540402835291602001916105bc565b820191906000526020600020905b81548152906001019060200180831161059f57829003601f168201915b5050505050908060040154908060050154908060060154908060070160009054906101000a900473ffffffffffffffffffffffffffffffffffffffff16908060070160149054906101000a900460ff16905089565b60008061061c610bf2565b9050610629858285610c0c565b610634858585610ca1565b60019150509392505050565b60006012905090565b610651610d95565b60008111610694576040517f08c379a000000000000000000000000000000000000000000000000000000000815260040161068b90611a3a565b60405180910390fd5b6006600083815260200190815260200160002060070160149054906101000a900460ff166106f7576040517f08c379a00000000000000000000000000000000000000000000000000000000081526004016106ee90611aa6565b60405180910390fd5b8060066000848152602001908152602001600020600601819055507f945c1c4e99aa89f648fbfe3df471b916f719e16d960fcec0737d4d56bd6968388282604051610743929190611ac6565b60405180910390a15050565b610757610d95565b6000821161079a576040517f08c379a000000000000000000000000000000000000000000000000000000000815260040161079190611b61565b60405180910390fd5b600081116107dd576040517f08c379a00000000000000000000000000000000000000000000000000000000081526004016107d490611bf3565b60405180910390fd5b6000600760008154809291906107f290611c42565b91905055905060405180610120016040528082815260200187815260200186815260200185815260200184815260200160008152602001838152602001610837610a00565b73ffffffffffffffffffffffffffffffffffffffff168152602001600115158152506006600083815260200190815260200160002060008201518160000155602082015181600101908161088b9190611e36565b5060408201518160020190816108a19190611e36565b5060608201518160030190816108b79190611e36565b506080820151816004015560a0820151816005015560c0820151816006015560e08201518160070160006101000a81548173ffffffffffffffffffffffffffffffffffffffff021916908373ffffffffffffffffffffffffffffffffffffffff1602179055506101008201518160070160146101000a81548160ff02191690831515021790555090505061095261094c610a00565b84610e1c565b7f8202e6dd3af25bc9a45fc5c5ef338be496e850cb5a2a68d1f8dd6f868108a375818787878787610981610a00565b6040516109949796959493929190611f08565b60405180910390a1505050505050565b60008060008373ffffffffffffffffffffffffffffffffffffffff1673ffffffffffffffffffffffffffffffffffffffff168152602001908152602001600020549050919050565b6109f4610d95565b6109fe6000610e9e565b565b6000600560009054906101000a900473ffffffffffffffffffffffffffffffffffffffff16905090565b606060048054610a39906119bd565b80601f0160208091040260200160405190810160405280929190818152602001828054610a65906119bd565b8015610ab25780601f10610a8757610100808354040283529160200191610ab2565b820191906000526020600020905b815481529060010190602001808311610a9557829003601f168201915b5050505050905090565b60075481565b600080610acd610bf2565b9050610ada818585610ca1565b600191505092915050565b6000600160008473ffffffffffffffffffffffffffffffffffffffff1673ffffffffffffffffffffffffffffffffffffffff16815260200190815260200160002060008373ffffffffffffffffffffffffffffffffffffffff1673ffffffffffffffffffffffffffffffffffffffff16815260200190815260200160002054905092915050565b610b74610d95565b600073ffffffffffffffffffffffffffffffffffffffff168173ffffffffffffffffffffffffffffffffffffffff1603610be65760006040517f1e4fbdf7000000000000000000000000000000000000000000000000000000008152600401610bdd9190611933565b60405180910390fd5b610bef81610e9e565b50565b600033905090565b610c078383836001610f64565b505050565b6000610c188484610ae5565b90507fffffffffffffffffffffffffffffffffffffffffffffffffffffffffffffffff811015610c9b5781811015610c8b578281836040517ffb8f41b2000000000000000000000000000000000000000000000000000000008152600401610c8293929190611f8c565b60405180910390fd5b610c9a84848484036000610f64565b5b50505050565b600073ffffffffffffffffffffffffffffffffffffffff168373ffffffffffffffffffffffffffffffffffffffff1603610d135760006040517f96c6fd1e000000000000000000000000000000000000000000000000000000008152600401610d0a9190611933565b60405180910390fd5b600073ffffffffffffffffffffffffffffffffffffffff168273ffffffffffffffffffffffffffffffffffffffff1603610d855760006040517fec442f05000000000000000000000000000000000000000000000000000000008152600401610d7c9190611933565b60405180910390fd5b610d9083838361113b565b505050565b610d9d610bf2565b73ffffffffffffffffffffffffffffffffffffffff16610dbb610a00565b73ffffffffffffffffffffffffffffffffffffffff1614610e1a57610dde610bf2565b6040517f118cdaa7000000000000000000000000000000000000000000000000000000008152600401610e119190611933565b60405180910390fd5b565b600073ffffffffffffffffffffffffffffffffffffffff168273ffffffffffffffffffffffffffffffffffffffff1603610e8e5760006040517fec442f05000000000000000000000000000000000000000000000000000000008152600401610e859190611933565b60405180910390fd5b610e9a6000838361113b565b5050565b6000600560009054906101000a900473ffffffffffffffffffffffffffffffffffffffff16905081600560006101000a81548173ffffffffffffffffffffffffffffffffffffffff021916908373ffffffffffffffffffffffffffffffffffffffff1602179055508173ffffffffffffffffffffffffffffffffffffffff168173ffffffffffffffffffffffffffffffffffffffff167f8be0079c531659141344cd1fd0a4f28419497f9722a3daafe3b4186f6b6457e060405160405180910390a35050565b600073ffffffffffffffffffffffffffffffffffffffff168473ffffffffffffffffffffffffffffffffffffffff1603610fd65760006040517fe602df05000000000000000000000000000000000000000000000000000000008152600401610fcd9190611933565b60405180910390fd5b600073ffffffffffffffffffffffffffffffffffffffff168373ffffffffffffffffffffffffffffffffffffffff16036110485760006040517f94280d6200000000000000000000000000000000000000000000000000000000815260040161103f9190611933565b60405180910390fd5b81600160008673ffffffffffffffffffffffffffffffffffffffff1673ffffffffffffffffffffffffffffffffffffffff16815260200190815260200160002060008573ffffffffffffffffffffffffffffffffffffffff1673ffffffffffffffffffffffffffffffffffffffff168152602001908152602001600020819055508015611135578273ffffffffffffffffffffffffffffffffffffffff168473ffffffffffffffffffffffffffffffffffffffff167f8c5be1e5ebec7d5bd14f71427d1e84f3dd0314c0f7b2291e5b200ac8c7c3b9258460405161112c919061153f565b60405180910390a35b50505050565b600073ffffffffffffffffffffffffffffffffffffffff168373ffffffffffffffffffffffffffffffffffffffff160361118d5780600260008282546111819190611fc3565b92505081905550611260565b60008060008573ffffffffffffffffffffffffffffffffffffffff1673ffffffffffffffffffffffffffffffffffffffff16815260200190815260200160002054905081811015611219578381836040517fe450d38c00000000000000000000000000000000000000000000000000000000815260040161121093929190611f8c565b60405180910390fd5b8181036000808673ffffffffffffffffffffffffffffffffffffffff1673ffffffffffffffffffffffffffffffffffffffff16815260200190815260200160002081905550505b600073ffffffffffffffffffffffffffffffffffffffff168273ffffffffffffffffffffffffffffffffffffffff16036112a957806002600082825403925050819055506112f6565b806000808473ffffffffffffffffffffffffffffffffffffffff1673ffffffffffffffffffffffffffffffffffffffff168152602001908152602001600020600082825401925050819055505b8173ffffffffffffffffffffffffffffffffffffffff168373ffffffffffffffffffffffffffffffffffffffff167fddf252ad1be2c89b69c2b068fc378daa952ba7f163c4a11628f55a4df523b3ef83604051611353919061153f565b60405180910390a3505050565b600081519050919050565b600082825260208201905092915050565b60005b8381101561139a57808201518184015260208101905061137f565b60008484015250505050565b6000601f19601f8301169050919050565b60006113c282611360565b6113cc818561136b565b93506113dc81856020860161137c565b6113e5816113a6565b840191505092915050565b6000602082019050818103600083015261140a81846113b7565b905092915050565b6000604051905090565b600080fd5b600080fd5b600073ffffffffffffffffffffffffffffffffffffffff82169050919050565b600061145182611426565b9050919050565b61146181611446565b811461146c57600080fd5b50565b60008135905061147e81611458565b92915050565b6000819050919050565b61149781611484565b81146114a257600080fd5b50565b6000813590506114b48161148e565b92915050565b600080604083850312156114d1576114d061141c565b5b60006114df8582860161146f565b92505060206114f0858286016114a5565b9150509250929050565b60008115159050919050565b61150f816114fa565b82525050565b600060208201905061152a6000830184611506565b92915050565b61153981611484565b82525050565b60006020820190506115546000830184611530565b92915050565b6000602082840312156115705761156f61141c565b5b600061157e848285016114a5565b91505092915050565b61159081611446565b82525050565b6000610120820190506115ac600083018c611530565b81810360208301526115be818b6113b7565b905081810360408301526115d2818a6113b7565b905081810360608301526115e681896113b7565b90506115f56080830188611530565b61160260a0830187611530565b61160f60c0830186611530565b61161c60e0830185611587565b61162a610100830184611506565b9a9950505050505050505050565b6000806000606084860312156116515761165061141c565b5b600061165f8682870161146f565b93505060206116708682870161146f565b9250506040611681868287016114a5565b9150509250925092565b600060ff82169050919050565b6116a18161168b565b82525050565b60006020820190506116bc6000830184611698565b92915050565b600080604083850312156116d9576116d861141c565b5b60006116e7858286016114a5565b92505060206116f8858286016114a5565b9150509250929050565b600080fd5b600080fd5b7f4e487b7100000000000000000000000000000000000000000000000000000000600052604160045260246000fd5b611744826113a6565b810181811067ffffffffffffffff821117156117635761176261170c565b5b80604052505050565b6000611776611412565b9050611782828261173b565b919050565b600067ffffffffffffffff8211156117a2576117a161170c565b5b6117ab826113a6565b9050602081019050919050565b82818337600083830152505050565b60006117da6117d584611787565b61176c565b9050828152602081018484840111156117f6576117f5611707565b5b6118018482856117b8565b509392505050565b600082601f83011261181e5761181d611702565b5b813561182e8482602086016117c7565b91505092915050565b600080600080600060a086880312156118535761185261141c565b5b600086013567ffffffffffffffff81111561187157611870611421565b5b61187d88828901611809565b955050602086013567ffffffffffffffff81111561189e5761189d611421565b5b6118aa88828901611809565b945050604086013567ffffffffffffffff8111156118cb576118ca611421565b5b6118d788828901611809565b93505060606118e8888289016114a5565b92505060806118f9888289016114a5565b9150509295509295909350565b60006020828403121561191c5761191b61141c565b5b600061192a8482850161146f565b91505092915050565b60006020820190506119486000830184611587565b92915050565b600080604083850312156119655761196461141c565b5b60006119738582860161146f565b92505060206119848582860161146f565b9150509250929050565b7f4e487b7100000000000000000000000000000000000000000000000000000000600052602260045260246000fd5b600060028204905060018216806119d557607f821691505b6020821081036119e8576119e761198e565b5b50919050565b7f5072696365206d7573742062652067726561746572207468616e203000000000600082015250565b6000611a24601c8361136b565b9150611a2f826119ee565b602082019050919050565b60006020820190508181036000830152611a5381611a17565b9050919050565b7f53746f636b206973206e6f742061637469766500000000000000000000000000600082015250565b6000611a9060138361136b565b9150611a9b82611a5a565b602082019050919050565b60006020820190508181036000830152611abf81611a83565b9050919050565b6000604082019050611adb6000830185611530565b611ae86020830184611530565b9392505050565b7f546f74616c20736861726573206d75737420626520677265617465722074686160008201527f6e20300000000000000000000000000000000000000000000000000000000000602082015250565b6000611b4b60238361136b565b9150611b5682611aef565b604082019050919050565b60006020820190508181036000830152611b7a81611b3e565b9050919050565b7f5368617265207072696365206d7573742062652067726561746572207468616e60008201527f2030000000000000000000000000000000000000000000000000000000000000602082015250565b6000611bdd60228361136b565b9150611be882611b81565b604082019050919050565b60006020820190508181036000830152611c0c81611bd0565b9050919050565b7f4e487b7100000000000000000000000000000000000000000000000000000000600052601160045260246000fd5b6000611c4d82611484565b91507fffffffffffffffffffffffffffffffffffffffffffffffffffffffffffffffff8203611c7f57611c7e611c13565b5b600182019050919050565b60008190508160005260206000209050919050565b60006020601f8301049050919050565b600082821b905092915050565b600060088302611cec7fffffffffffffffffffffffffffffffffffffffffffffffffffffffffffffffff82611caf565b611cf68683611caf565b95508019841693508086168417925050509392505050565b6000819050919050565b6000611d33611d2e611d2984611484565b611d0e565b611484565b9050919050565b6000819050919050565b611d4d83611d18565b611d61611d5982611d3a565b848454611cbc565b825550505050565b600090565b611d76611d69565b611d81818484611d44565b505050565b5b81811015611da557611d9a600082611d6e565b600181019050611d87565b5050565b601f821115611dea57611dbb81611c8a565b611dc484611c9f565b81016020851015611dd3578190505b611de7611ddf85611c9f565b830182611d86565b50505b505050565b600082821c905092915050565b6000611e0d60001984600802611def565b1980831691505092915050565b6000611e268383611dfc565b9150826002028217905092915050565b611e3f82611360565b67ffffffffffffffff811115611e5857611e5761170c565b5b611e6282546119bd565b611e6d828285611da9565b600060209050601f831160018114611ea05760008415611e8e578287015190505b611e988582611e1a565b865550611f00565b601f198416611eae86611c8a565b60005b82811015611ed657848901518255600182019150602085019450602081019050611eb1565b86831015611ef35784890151611eef601f891682611dfc565b8355505b6001600288020188555050505b505050505050565b600060e082019050611f1d600083018a611530565b8181036020830152611f2f81896113b7565b90508181036040830152611f4381886113b7565b90508181036060830152611f5781876113b7565b9050611f666080830186611530565b611f7360a0830185611530565b611f8060c0830184611587565b98975050505050505050565b6000606082019050611fa16000830186611587565b611fae6020830185611530565b611fbb6040830184611530565b949350505050565b6000611fce82611484565b9150611fd983611484565b9250828201905080821115611ff157611ff0611c13565b5b9291505056fea264697066735822122041c934b324cba7a947bd51cec67ee1cb5ca319cad87e4ebd62ccd8d6f033e40a64736f6c634300081c0033",
  "linkReferences": {},
  "deployedLinkReferences": {}
}